{
  "contractName": "SimpleStorage",
  "abi": [
    {
      "constant": false,
      "inputs": [
        {
          "name": "_a",
          "type": "uint256"
        }
      ],
      "name": "setter",
      "outputs": [],
      "payable": false,
      "stateMutability": "nonpayable",
      "type": "function"
    },
    {
      "constant": true,
      "inputs": [],
      "name": "getter",
      "outputs": [
        {
          "name": "",
          "type": "uint256"
        }
      ],
      "payable": false,
      "stateMutability": "view",
      "type": "function"
    }
  ],
  "bytecode": "0x608060405234801561001057600080fd5b5060e68061001f6000396000f3fe6080604052600436106043576000357c010000000000000000000000000000000000000000000000000000000090048063993a04b7146048578063d423740b146070575b600080fd5b348015605357600080fd5b50605a60a7565b6040518082815260200191505060405180910390f35b348015607b57600080fd5b5060a560048036036020811015609057600080fd5b810190808035906020019092919050505060b0565b005b60008054905090565b806000819055505056fea165627a7a723058201ca9cc88e0ed5a6785e84568fa77cb87e43f4e3a7c9095616a935ae2ece3611e0029",
  "source": "// SPDX-License-Identifier: MIT\npragma solidity >= 0.4.22 <0.9.0;\n\ncontract SimpleStorage {\n\n    uint256 a;\n\n    function setter(uint256 _a) public {\n\n        a = _a;\n\n    }\n\n    function getter() public view returns (uint256) {\n\n        return a;\n\n    }\n\n}\n",
  "sourcePath": "/Users/pau/Desktop/Solidity/Truffle/contracts/SimpleStorage.sol",
  "compiler": {
    "name": "solc",
    "version": "0.5.1+commit.c8a2cb62.Emscripten.clang"
  },
  "schemaVersion": "3.4.16",
  "updatedAt": "2024-01-15T14:46:51.928Z",
  "networkType": "ethereum",
  "devdoc": {
    "methods": {}
  },
  "userdoc": {
    "methods": {}
  }
}